{
  "contractName": "medichain",
  "abi": [
    {
      "constant": true,
      "inputs": [
        {
          "name": "",
          "type": "uint8"
        }
      ],
      "name": "DoctorList",
      "outputs": [
        {
          "name": "Publickey",
          "type": "address"
        },
        {
          "name": "Id",
          "type": "uint8"
        },
        {
          "name": "Name",
          "type": "string"
        },
        {
          "name": "Age",
          "type": "uint8"
        },
        {
          "name": "MyGender",
          "type": "uint8"
        },
        {
          "name": "Email",
          "type": "string"
        },
        {
          "name": "HospitalName",
          "type": "string"
        },
        {
          "name": "Qualification",
          "type": "string"
        }
      ],
      "payable": false,
      "stateMutability": "view",
      "type": "function"
    },
    {
      "constant": true,
      "inputs": [
        {
          "name": "",
          "type": "uint256"
        }
      ],
      "name": "HospitalDetails",
      "outputs": [
        {
          "name": "Publickey",
          "type": "address"
        },
        {
          "name": "Id",
          "type": "uint256"
        },
        {
          "name": "Name",
          "type": "string"
        },
        {
          "name": "Email",
          "type": "string"
        },
        {
          "name": "Phone",
          "type": "uint256"
        },
        {
          "name": "Addrs",
          "type": "string"
        }
      ],
      "payable": false,
      "stateMutability": "view",
      "type": "function"
    },
    {
      "constant": true,
      "inputs": [
        {
          "name": "",
          "type": "uint256"
        }
      ],
      "name": "PatientDetails",
      "outputs": [
        {
          "name": "Publickey",
          "type": "address"
        },
        {
          "name": "Id",
          "type": "uint8"
        },
        {
          "name": "Name",
          "type": "string"
        },
        {
          "name": "Age",
          "type": "uint8"
        },
        {
          "name": "MyGender",
          "type": "uint8"
        },
        {
          "name": "PhoneNo",
          "type": "uint256"
        },
        {
          "name": "Email",
          "type": "string"
        },
        {
          "name": "Addrs",
          "type": "string"
        }
      ],
      "payable": false,
      "stateMutability": "view",
      "type": "function"
    },
    {
      "constant": true,
      "inputs": [
        {
          "name": "",
          "type": "uint8"
        }
      ],
      "name": "Treatmentdetails",
      "outputs": [
        {
          "name": "Publickey",
          "type": "address"
        },
        {
          "name": "Id",
          "type": "uint8"
        },
        {
          "name": "DoctorId",
          "type": "uint256"
        },
        {
          "name": "Hospital",
          "type": "string"
        },
        {
          "name": "Observation",
          "type": "string"
        },
        {
          "name": "Disease",
          "type": "string"
        },
        {
          "name": "Medicine",
          "type": "string"
        }
      ],
      "payable": false,
      "stateMutability": "view",
      "type": "function"
    },
    {
      "inputs": [],
      "payable": false,
      "stateMutability": "nonpayable",
      "type": "constructor"
    },
    {
      "constant": false,
      "inputs": [
        {
          "name": "_Publickey",
          "type": "address"
        },
        {
          "name": "_Id",
          "type": "uint8"
        },
        {
          "name": "_Name",
          "type": "string"
        },
        {
          "name": "_Age",
          "type": "uint8"
        },
        {
          "name": "_MyGender",
          "type": "uint8"
        },
        {
          "name": "_PhoneNo",
          "type": "uint8"
        },
        {
          "name": "_Email",
          "type": "string"
        },
        {
          "name": "_Addrs",
          "type": "string"
        }
      ],
      "name": "setPatient",
      "outputs": [],
      "payable": false,
      "stateMutability": "nonpayable",
      "type": "function"
    },
    {
      "constant": false,
      "inputs": [
        {
          "name": "_Publickey",
          "type": "address"
        },
        {
          "name": "_Id",
          "type": "uint8"
        },
        {
          "name": "_Name",
          "type": "string"
        },
        {
          "name": "_Age",
          "type": "uint8"
        },
        {
          "name": "_MyGender",
          "type": "uint8"
        },
        {
          "name": "_Email",
          "type": "string"
        },
        {
          "name": "_HospitalName",
          "type": "string"
        },
        {
          "name": "_Qualification",
          "type": "string"
        }
      ],
      "name": "setDoctor",
      "outputs": [],
      "payable": false,
      "stateMutability": "nonpayable",
      "type": "function"
    },
    {
      "constant": false,
      "inputs": [
        {
          "name": "_Publickey",
          "type": "address"
        },
        {
          "name": "_Id",
          "type": "uint8"
        },
        {
          "name": "_Name",
          "type": "string"
        },
        {
          "name": "_Email",
          "type": "string"
        },
        {
          "name": "_Phone",
          "type": "uint8"
        },
        {
          "name": "_Addrs",
          "type": "string"
        }
      ],
      "name": "setHospital",
      "outputs": [],
      "payable": false,
      "stateMutability": "nonpayable",
      "type": "function"
    },
    {
      "constant": false,
      "inputs": [
        {
          "name": "_Publickey",
          "type": "address"
        },
        {
          "name": "_Id",
          "type": "uint8"
        },
        {
          "name": "_DoctorId",
          "type": "uint256"
        },
        {
          "name": "_Hospital",
          "type": "string"
        },
        {
          "name": "_Observation",
          "type": "string"
        },
        {
          "name": "_Disease",
          "type": "string"
        },
        {
          "name": "_Medicine",
          "type": "string"
        }
      ],
      "name": "setTreatmentDetails",
      "outputs": [],
      "payable": false,
      "stateMutability": "nonpayable",
      "type": "function"
    }
  ],
  "bytecode": "0x608060405234801561001057600080fd5b50336000806101000a81548173ffffffffffffffffffffffffffffffffffffffff021916908373ffffffffffffffffffffffffffffffffffffffff16021790555061255f806100606000396000f3fe60806040526004361061008e576000357c0100000000000000000000000000000000000000000000000000000000900463ffffffff168063049fedc1146100935780633068bc5a146102f057806338d96d2b146104bd5780635861ea58146106b257806363648535146108f45780638172d22814610b24578063b4ecd25b14610d6f578063cd00fae714611033575b600080fd5b34801561009f57600080fd5b506100cf600480360360208110156100b657600080fd5b81019080803560ff169060200190929190505050611308565b604051808973ffffffffffffffffffffffffffffffffffffffff1673ffffffffffffffffffffffffffffffffffffffff1681526020018860ff1660ff168152602001806020018760ff1660ff16815260200186600281111561012d57fe5b60ff16815260200180602001806020018060200185810385528b818151815260200191508051906020019080838360005b8381101561017957808201518184015260208101905061015e565b50505050905090810190601f1680156101a65780820380516001836020036101000a031916815260200191505b50858103845288818151815260200191508051906020019080838360005b838110156101df5780820151818401526020810190506101c4565b50505050905090810190601f16801561020c5780820380516001836020036101000a031916815260200191505b50858103835287818151815260200191508051906020019080838360005b8381101561024557808201518184015260208101905061022a565b50505050905090810190601f1680156102725780820380516001836020036101000a031916815260200191505b50858103825286818151815260200191508051906020019080838360005b838110156102ab578082015181840152602081019050610290565b50505050905090810190601f1680156102d85780820380516001836020036101000a031916815260200191505b509c5050505050505050505050505060405180910390f35b3480156102fc57600080fd5b506103296004803603602081101561031357600080fd5b81019080803590602001909291905050506115f7565b604051808773ffffffffffffffffffffffffffffffffffffffff1673ffffffffffffffffffffffffffffffffffffffff168152602001868152602001806020018060200185815260200180602001848103845288818151815260200191508051906020019080838360005b838110156103af578082015181840152602081019050610394565b50505050905090810190601f1680156103dc5780820380516001836020036101000a031916815260200191505b50848103835287818151815260200191508051906020019080838360005b838110156104155780820151818401526020810190506103fa565b50505050905090810190601f1680156104425780820380516001836020036101000a031916815260200191505b50848103825285818151815260200191508051906020019080838360005b8381101561047b578082015181840152602081019050610460565b50505050905090810190601f1680156104a85780820380516001836020036101000a031916815260200191505b50995050505050505050505060405180910390f35b3480156104c957600080fd5b506104f6600480360360208110156104e057600080fd5b810190808035906020019092919050505061181b565b604051808973ffffffffffffffffffffffffffffffffffffffff1673ffffffffffffffffffffffffffffffffffffffff1681526020018860ff1660ff168152602001806020018760ff1660ff16815260200186600281111561055457fe5b60ff168152602001858152602001806020018060200184810384528a818151815260200191508051906020019080838360005b838110156105a2578082015181840152602081019050610587565b50505050905090810190601f1680156105cf5780820380516001836020036101000a031916815260200191505b50848103835286818151815260200191508051906020019080838360005b838110156106085780820151818401526020810190506105ed565b50505050905090810190601f1680156106355780820380516001836020036101000a031916815260200191505b50848103825285818151815260200191508051906020019080838360005b8381101561066e578082015181840152602081019050610653565b50505050905090810190601f16801561069b5780820380516001836020036101000a031916815260200191505b509b50505050505050505050505060405180910390f35b3480156106be57600080fd5b506106ee600480360360208110156106d557600080fd5b81019080803560ff169060200190929190505050611a72565b604051808873ffffffffffffffffffffffffffffffffffffffff1673ffffffffffffffffffffffffffffffffffffffff1681526020018760ff1660ff16815260200186815260200180602001806020018060200180602001858103855289818151815260200191508051906020019080838360005b8381101561077e578082015181840152602081019050610763565b50505050905090810190601f1680156107ab5780820380516001836020036101000a031916815260200191505b50858103845288818151815260200191508051906020019080838360005b838110156107e45780820151818401526020810190506107c9565b50505050905090810190601f1680156108115780820380516001836020036101000a031916815260200191505b50858103835287818151815260200191508051906020019080838360005b8381101561084a57808201518184015260208101905061082f565b50505050905090810190601f1680156108775780820380516001836020036101000a031916815260200191505b50858103825286818151815260200191508051906020019080838360005b838110156108b0578082015181840152602081019050610895565b50505050905090810190601f1680156108dd5780820380516001836020036101000a031916815260200191505b509b50505050505050505050505060405180910390f35b34801561090057600080fd5b50610b22600480360360c081101561091757600080fd5b81019080803573ffffffffffffffffffffffffffffffffffffffff169060200190929190803560ff1690602001909291908035906020019064010000000081111561096157600080fd5b82018360208201111561097357600080fd5b8035906020019184600183028401116401000000008311171561099557600080fd5b91908080601f016020809104026020016040519081016040528093929190818152602001838380828437600081840152601f19601f820116905080830192505050505050509192919290803590602001906401000000008111156109f857600080fd5b820183602082011115610a0a57600080fd5b80359060200191846001830284011164010000000083111715610a2c57600080fd5b91908080601f016020809104026020016040519081016040528093929190818152602001838380828437600081840152601f19601f820116905080830192505050505050509192919290803560ff16906020019092919080359060200190640100000000811115610a9c57600080fd5b820183602082011115610aae57600080fd5b80359060200191846001830284011164010000000083111715610ad057600080fd5b91908080601f016020809104026020016040519081016040528093929190818152602001838380828437600081840152601f19601f820116905080830192505050505050509192919290505050611d41565b005b348015610b3057600080fd5b50610d6d6004803603610100811015610b4857600080fd5b81019080803573ffffffffffffffffffffffffffffffffffffffff169060200190929190803560ff16906020019092919080359060200190640100000000811115610b9257600080fd5b820183602082011115610ba457600080fd5b80359060200191846001830284011164010000000083111715610bc657600080fd5b91908080601f016020809104026020016040519081016040528093929190818152602001838380828437600081840152601f19601f820116905080830192505050505050509192919290803560ff169060200190929190803560ff169060200190929190803560ff16906020019092919080359060200190640100000000811115610c5057600080fd5b820183602082011115610c6257600080fd5b80359060200191846001830284011164010000000083111715610c8457600080fd5b91908080601f016020809104026020016040519081016040528093929190818152602001838380828437600081840152601f19601f82011690508083019250505050505050919291929080359060200190640100000000811115610ce757600080fd5b820183602082011115610cf957600080fd5b80359060200191846001830284011164010000000083111715610d1b57600080fd5b91908080601f016020809104026020016040519081016040528093929190818152602001838380828437600081840152601f19601f820116905080830192505050505050509192919290505050611f00565b005b348015610d7b57600080fd5b50611031600480360360e0811015610d9257600080fd5b81019080803573ffffffffffffffffffffffffffffffffffffffff169060200190929190803560ff1690602001909291908035906020019092919080359060200190640100000000811115610de657600080fd5b820183602082011115610df857600080fd5b80359060200191846001830284011164010000000083111715610e1a57600080fd5b91908080601f016020809104026020016040519081016040528093929190818152602001838380828437600081840152601f19601f82011690508083019250505050505050919291929080359060200190640100000000811115610e7d57600080fd5b820183602082011115610e8f57600080fd5b80359060200191846001830284011164010000000083111715610eb157600080fd5b91908080601f016020809104026020016040519081016040528093929190818152602001838380828437600081840152601f19601f82011690508083019250505050505050919291929080359060200190640100000000811115610f1457600080fd5b820183602082011115610f2657600080fd5b80359060200191846001830284011164010000000083111715610f4857600080fd5b91908080601f016020809104026020016040519081016040528093929190818152602001838380828437600081840152601f19601f82011690508083019250505050505050919291929080359060200190640100000000811115610fab57600080fd5b820183602082011115610fbd57600080fd5b80359060200191846001830284011164010000000083111715610fdf57600080fd5b91908080601f016020809104026020016040519081016040528093929190818152602001838380828437600081840152601f19601f8201169050808301925050505050505091929192905050506120f0565b005b34801561103f57600080fd5b50611306600480360361010081101561105757600080fd5b81019080803573ffffffffffffffffffffffffffffffffffffffff169060200190929190803560ff169060200190929190803590602001906401000000008111156110a157600080fd5b8201836020820111156110b357600080fd5b803590602001918460018302840111640100000000831117156110d557600080fd5b91908080601f016020809104026020016040519081016040528093929190818152602001838380828437600081840152601f19601f820116905080830192505050505050509192919290803560ff169060200190929190803560ff1690602001909291908035906020019064010000000081111561115257600080fd5b82018360208201111561116457600080fd5b8035906020019184600183028401116401000000008311171561118657600080fd5b91908080601f016020809104026020016040519081016040528093929190818152602001838380828437600081840152601f19601f820116905080830192505050505050509192919290803590602001906401000000008111156111e957600080fd5b8201836020820111156111fb57600080fd5b8035906020019184600183028401116401000000008311171561121d57600080fd5b91908080601f016020809104026020016040519081016040528093929190818152602001838380828437600081840152601f19601f8201169050808301925050505050505091929192908035906020019064010000000081111561128057600080fd5b82018360208201111561129257600080fd5b803590602001918460018302840111640100000000831117156112b457600080fd5b91908080601f016020809104026020016040519081016040528093929190818152602001838380828437600081840152601f19601f820116905080830192505050505050509192919290505050612248565b005b60036020528060005260406000206000915090508060000160009054906101000a900473ffffffffffffffffffffffffffffffffffffffff16908060000160149054906101000a900460ff1690806001018054600181600116156101000203166002900480601f0160208091040260200160405190810160405280929190818152602001828054600181600116156101000203166002900480156113ed5780601f106113c2576101008083540402835291602001916113ed565b820191906000526020600020905b8154815290600101906020018083116113d057829003601f168201915b5050505050908060020160009054906101000a900460ff16908060020160019054906101000a900460ff1690806003018054600181600116156101000203166002900480601f0160208091040260200160405190810160405280929190818152602001828054600181600116156101000203166002900480156114b15780601f10611486576101008083540402835291602001916114b1565b820191906000526020600020905b81548152906001019060200180831161149457829003601f168201915b505050505090806004018054600181600116156101000203166002900480601f01602080910402602001604051908101604052809291908181526020018280546001816001161561010002031660029004801561154f5780601f106115245761010080835404028352916020019161154f565b820191906000526020600020905b81548152906001019060200180831161153257829003601f168201915b505050505090806005018054600181600116156101000203166002900480601f0160208091040260200160405190810160405280929190818152602001828054600181600116156101000203166002900480156115ed5780601f106115c2576101008083540402835291602001916115ed565b820191906000526020600020905b8154815290600101906020018083116115d057829003601f168201915b5050505050905088565b60056020528060005260406000206000915090508060000160009054906101000a900473ffffffffffffffffffffffffffffffffffffffff1690806001015490806002018054600181600116156101000203166002900480601f0160208091040260200160405190810160405280929190818152602001828054600181600116156101000203166002900480156116cf5780601f106116a4576101008083540402835291602001916116cf565b820191906000526020600020905b8154815290600101906020018083116116b257829003601f168201915b505050505090806003018054600181600116156101000203166002900480601f01602080910402602001604051908101604052809291908181526020018280546001816001161561010002031660029004801561176d5780601f106117425761010080835404028352916020019161176d565b820191906000526020600020905b81548152906001019060200180831161175057829003601f168201915b505050505090806004015490806005018054600181600116156101000203166002900480601f0160208091040260200160405190810160405280929190818152602001828054600181600116156101000203166002900480156118115780601f106117e657610100808354040283529160200191611811565b820191906000526020600020905b8154815290600101906020018083116117f457829003601f168201915b5050505050905086565b60016020528060005260406000206000915090508060000160009054906101000a900473ffffffffffffffffffffffffffffffffffffffff16908060000160149054906101000a900460ff1690806001018054600181600116156101000203166002900480601f0160208091040260200160405190810160405280929190818152602001828054600181600116156101000203166002900480156119005780601f106118d557610100808354040283529160200191611900565b820191906000526020600020905b8154815290600101906020018083116118e357829003601f168201915b5050505050908060020160009054906101000a900460ff16908060020160019054906101000a900460ff1690806003015490806004018054600181600116156101000203166002900480601f0160208091040260200160405190810160405280929190818152602001828054600181600116156101000203166002900480156119ca5780601f1061199f576101008083540402835291602001916119ca565b820191906000526020600020905b8154815290600101906020018083116119ad57829003601f168201915b505050505090806005018054600181600116156101000203166002900480601f016020809104026020016040519081016040528092919081815260200182805460018160011615610100020316600290048015611a685780601f10611a3d57610100808354040283529160200191611a68565b820191906000526020600020905b815481529060010190602001808311611a4b57829003601f168201915b5050505050905088565b60076020528060005260406000206000915090508060000160009054906101000a900473ffffffffffffffffffffffffffffffffffffffff16908060000160149054906101000a900460ff1690806001015490806002018054600181600116156101000203166002900480601f016020809104026020016040519081016040528092919081815260200182805460018160011615610100020316600290048015611b5d5780601f10611b3257610100808354040283529160200191611b5d565b820191906000526020600020905b815481529060010190602001808311611b4057829003601f168201915b505050505090806003018054600181600116156101000203166002900480601f016020809104026020016040519081016040528092919081815260200182805460018160011615610100020316600290048015611bfb5780601f10611bd057610100808354040283529160200191611bfb565b820191906000526020600020905b815481529060010190602001808311611bde57829003601f168201915b505050505090806004018054600181600116156101000203166002900480601f016020809104026020016040519081016040528092919081815260200182805460018160011615610100020316600290048015611c995780601f10611c6e57610100808354040283529160200191611c99565b820191906000526020600020905b815481529060010190602001808311611c7c57829003601f168201915b505050505090806005018054600181600116156101000203166002900480601f016020809104026020016040519081016040528092919081815260200182805460018160011615610100020316600290048015611d375780601f10611d0c57610100808354040283529160200191611d37565b820191906000526020600020905b815481529060010190602001808311611d1a57829003601f168201915b5050505050905087565b6000809054906101000a900473ffffffffffffffffffffffffffffffffffffffff1673ffffffffffffffffffffffffffffffffffffffff163373ffffffffffffffffffffffffffffffffffffffff16141515611d9c57600080fd5b60c0604051908101604052808773ffffffffffffffffffffffffffffffffffffffff1681526020018660ff1681526020018581526020018481526020018360ff16815260200182815250600560008760ff16815260200190815260200160002060008201518160000160006101000a81548173ffffffffffffffffffffffffffffffffffffffff021916908373ffffffffffffffffffffffffffffffffffffffff160217905550602082015181600101556040820151816002019080519060200190611e6992919061248e565b506060820151816003019080519060200190611e8692919061248e565b506080820151816004015560a0820151816005019080519060200190611ead92919061248e565b509050508460ff16600660008873ffffffffffffffffffffffffffffffffffffffff1673ffffffffffffffffffffffffffffffffffffffff16815260200190815260200160002081905550505050505050565b610100604051908101604052808973ffffffffffffffffffffffffffffffffffffffff1681526020018860ff1681526020018781526020018660ff168152602001856002811115611f4d57fe5b81526020018460ff16815260200183815260200182815250600160008960ff16815260200190815260200160002060008201518160000160006101000a81548173ffffffffffffffffffffffffffffffffffffffff021916908373ffffffffffffffffffffffffffffffffffffffff16021790555060208201518160000160146101000a81548160ff021916908360ff1602179055506040820151816001019080519060200190611fff92919061248e565b5060608201518160020160006101000a81548160ff021916908360ff16021790555060808201518160020160016101000a81548160ff0219169083600281111561204557fe5b021790555060a0820151816003015560c082015181600401908051906020019061207092919061248e565b5060e082015181600501908051906020019061208d92919061248e565b5090505087600260008960ff16815260200190815260200160002060006101000a81548173ffffffffffffffffffffffffffffffffffffffff021916908373ffffffffffffffffffffffffffffffffffffffff1602179055505050505050505050565b60e0604051908101604052808873ffffffffffffffffffffffffffffffffffffffff1681526020018760ff16815260200186815260200185815260200184815260200183815260200182815250600760008860ff1660ff16815260200190815260200160002060008201518160000160006101000a81548173ffffffffffffffffffffffffffffffffffffffff021916908373ffffffffffffffffffffffffffffffffffffffff16021790555060208201518160000160146101000a81548160ff021916908360ff1602179055506040820151816001015560608201518160020190805190602001906121e492919061248e565b50608082015181600301908051906020019061220192919061248e565b5060a082015181600401908051906020019061221e92919061248e565b5060c082015181600501908051906020019061223b92919061248e565b5090505050505050505050565b336000600660008373ffffffffffffffffffffffffffffffffffffffff1673ffffffffffffffffffffffffffffffffffffffff168152602001908152602001600020541415151561229857600080fd5b610100604051908101604052808a73ffffffffffffffffffffffffffffffffffffffff1681526020018960ff1681526020018881526020018760ff1681526020018660028111156122e557fe5b815260200185815260200184815260200183815250600360008a60ff1660ff16815260200190815260200160002060008201518160000160006101000a81548173ffffffffffffffffffffffffffffffffffffffff021916908373ffffffffffffffffffffffffffffffffffffffff16021790555060208201518160000160146101000a81548160ff021916908360ff160217905550604082015181600101908051906020019061239792919061248e565b5060608201518160020160006101000a81548160ff021916908360ff16021790555060808201518160020160016101000a81548160ff021916908360028111156123dd57fe5b021790555060a08201518160030190805190602001906123fe92919061248e565b5060c082015181600401908051906020019061241b92919061248e565b5060e082015181600501908051906020019061243892919061248e565b509050508760ff16600460008b73ffffffffffffffffffffffffffffffffffffffff1673ffffffffffffffffffffffffffffffffffffffff16815260200190815260200160002081905550505050505050505050565b828054600181600116156101000203166002900490600052602060002090601f016020900481019282601f106124cf57805160ff19168380011785556124fd565b828001600101855582156124fd579182015b828111156124fc5782518255916020019190600101906124e1565b5b50905061250a919061250e565b5090565b61253091905b8082111561252c576000816000905550600101612514565b5090565b9056fea165627a7a723058205f3feb51d105afcfa79b0656ee930a601aa2ccb51821308c0c8b1e73d5393afc0029",
  "source": "    pragma solidity ^0.5.0;\n\ncontract medichain{\n\n     \n    address admin;\n    enum gender {male, female, other}\n\n    constructor() public {\n        admin = msg.sender;\n    }\n    \n     struct patient{\n        \n        address Publickey;\n        uint8 Id;\n        string Name;\n        uint8 Age;\n        gender MyGender;\n        uint PhoneNo;\n        string Email;\n        string Addrs;\n       \n    }\n    mapping(uint => patient) public PatientDetails;\n    mapping(uint256 => address) PatientAddress;\n    \n    \n     function setPatient(address _Publickey,uint8 _Id, string memory _Name, uint8 _Age, gender _MyGender, uint8 _PhoneNo, string memory _Email, string memory _Addrs) public {\n        PatientDetails[_Id] = patient(_Publickey, _Id, _Name, _Age, _MyGender, _PhoneNo, _Email, _Addrs);\n        PatientAddress[_Id] = _Publickey;\n    }\n    \n    //  function getPatient(uint _Id) public view returns (address _Publickey, string memory _Name, uint _Age, gender _MyGender, uint _PhoneNo, string memory _Email, string memory _Addrs){\n         \n    //     _Publickey = patientDetails[_Id].Publickey;\n    //     _Id = patientDetails[_Id].Id;\n    //     _Name = patientDetails[_Id].Name;\n    //     _Age = patientDetails[_Id].Age;\n    //     _MyGender = patientDetails[_Id].MyGender;\n    //     _PhoneNo = patientDetails[_Id].PhoneNo;\n    //     _Email = patientDetails[_Id].Email;\n    //     _Addrs = patientDetails[_Id].Addrs;\n        \n    // }\n\n    struct doctor{\n        \n        address Publickey;\n        uint8 Id;\n        string Name;\n        uint8 Age;\n        gender MyGender;\n        string Email;\n        string HospitalName;\n        string Qualification;\n    }\n    \n\n    mapping(uint8 => doctor) public DoctorList;\n    mapping(address => uint256)  DoctorAddress;\n    \n    modifier onlyHospital(address adr) { \n        require(HospitalAddress[adr] != 0); \n        _; \n        \n    }\n    \n    \n    function setDoctor(address _Publickey, uint8 _Id,  string memory _Name, uint8 _Age,gender _MyGender, string memory _Email, string memory _HospitalName, string memory _Qualification ) public onlyHospital(msg.sender)  {\n       DoctorList[_Id] = doctor(_Publickey, _Id , _Name, _Age, _MyGender, _Email, _HospitalName, _Qualification );\n       DoctorAddress[_Publickey] = _Id;\n    }    \n\n    // function getDoctor(uint _Id) public view returns (address _Publickey, string memory _Name, uint _Age,gender _MyGender, string memory _Email, string memory _HospitalName, string memory _Qualification){\n\n    //     _Publickey = DoctorList[_Id].Publickey;\n    //     _Id = DoctorList[_Id].Id;\n    //     _Name = DoctorList[_Id].Name;\n    //     _Age = DoctorList[_Id].Age;\n    //     _MyGender = DoctorList[_Id].MyGender;\n    //     _Email = DoctorList[_Id].Email;\n    //     _HospitalName = DoctorList[_Id].HospitalName;\n    //     _Qualification = DoctorList[_Id].Qualification;\n    // }\n\n    struct hospital{\n        address Publickey;\n        uint Id;\n        string Name;\n        string Email;\n        uint Phone;\n        string Addrs;\n      \n    }\n\n    mapping(uint => hospital) public HospitalDetails;\n    mapping(address => uint)  HospitalAddress;\n    \n    modifier onlyAdmin(){\n        require(msg.sender == admin);\n        \n        _;\n    }\n    function setHospital( address _Publickey, uint8 _Id, string memory _Name, string memory _Email, uint8 _Phone, string memory _Addrs) public onlyAdmin{\n        HospitalDetails[_Id] = hospital( _Publickey, _Id, _Name, _Email, _Phone, _Addrs);\n        // size=size+1;\n        HospitalAddress[_Publickey]= _Id;\n    }\n    \n    \n    // function getHospital(uint _Id) public view returns ( address _Publickey,  string memory _Name, string memory _Email, uint  _Phone, string memory _Addrs){\n\n    //     _Publickey= HospitalDetails[_Id].Publickey;\n    //     _Name = HospitalDetails[_Id].Name;\n    //     _Email = HospitalDetails[_Id].Email;\n    //     _Phone = HospitalDetails[_Id].Phone;\n    //     _Addrs = HospitalDetails[_Id].Addrs;\n    //     }\n    \n    \n  struct Treatment{\n      \n        address Publickey;   \n        uint8 Id;\n        uint DoctorId;\n        string Hospital;\n        string Observation;\n        string Disease;\n        string Medicine;\n        \n    }\n    \n    mapping(uint8 => Treatment) public Treatmentdetails;\n    \n    \n    modifier onlyDoctor(address adr) { \n        require(DoctorAddress[adr] != 0); \n        _; \n        \n    }\n    \n    \n    function setTreatmentDetails(address _Publickey, uint8 _Id, uint _DoctorId,string memory _Hospital, string memory _Observation, string memory _Disease, string memory _Medicine ) public{\n        \n        Treatmentdetails[_Id] = Treatment( _Publickey, _Id, _DoctorId, _Hospital, _Observation, _Disease, _Medicine);\n        \n    }\n   \n}\n\n\n\n\n",
  "sourcePath": "/home/madmax/Desktop/ethmedichain/contracts/Medichain.sol",
  "compiler": {
    "name": "solc",
    "version": "0.5.0+commit.1d4f565a.Emscripten.clang"
  },
  "schemaVersion": "3.0.6",
  "updatedAt": "2019-05-28T04:04:57.530Z",
  "devdoc": {
    "methods": {}
  },
  "userdoc": {
    "methods": {}
  }
}